{
  "_format": "hh-sol-artifact-1",
  "contractName": "GenesysNFT",
  "sourceName": "contracts/genesysnft.sol",
  "abi": [
    {
      "inputs": [],
      "stateMutability": "nonpayable",
      "type": "constructor"
    },
    {
      "anonymous": false,
      "inputs": [
        {
          "indexed": true,
          "internalType": "address",
          "name": "owner",
          "type": "address"
        },
        {
          "indexed": true,
          "internalType": "address",
          "name": "approved",
          "type": "address"
        },
        {
          "indexed": true,
          "internalType": "uint256",
          "name": "tokenId",
          "type": "uint256"
        }
      ],
      "name": "Approval",
      "type": "event"
    },
    {
      "anonymous": false,
      "inputs": [
        {
          "indexed": true,
          "internalType": "address",
          "name": "owner",
          "type": "address"
        },
        {
          "indexed": true,
          "internalType": "address",
          "name": "operator",
          "type": "address"
        },
        {
          "indexed": false,
          "internalType": "bool",
          "name": "approved",
          "type": "bool"
        }
      ],
      "name": "ApprovalForAll",
      "type": "event"
    },
    {
      "anonymous": false,
      "inputs": [
        {
          "indexed": true,
          "internalType": "address",
          "name": "previousOwner",
          "type": "address"
        },
        {
          "indexed": true,
          "internalType": "address",
          "name": "newOwner",
          "type": "address"
        }
      ],
      "name": "OwnershipTransferred",
      "type": "event"
    },
    {
      "anonymous": false,
      "inputs": [
        {
          "indexed": true,
          "internalType": "address",
          "name": "from",
          "type": "address"
        },
        {
          "indexed": true,
          "internalType": "address",
          "name": "to",
          "type": "address"
        },
        {
          "indexed": true,
          "internalType": "uint256",
          "name": "tokenId",
          "type": "uint256"
        }
      ],
      "name": "Transfer",
      "type": "event"
    },
    {
      "inputs": [
        {
          "internalType": "address",
          "name": "to",
          "type": "address"
        },
        {
          "internalType": "uint256",
          "name": "tokenId",
          "type": "uint256"
        }
      ],
      "name": "approve",
      "outputs": [],
      "stateMutability": "nonpayable",
      "type": "function"
    },
    {
      "inputs": [
        {
          "internalType": "address",
          "name": "owner",
          "type": "address"
        }
      ],
      "name": "balanceOf",
      "outputs": [
        {
          "internalType": "uint256",
          "name": "",
          "type": "uint256"
        }
      ],
      "stateMutability": "view",
      "type": "function"
    },
    {
      "inputs": [
        {
          "internalType": "uint256",
          "name": "tokenId",
          "type": "uint256"
        }
      ],
      "name": "getApproved",
      "outputs": [
        {
          "internalType": "address",
          "name": "",
          "type": "address"
        }
      ],
      "stateMutability": "view",
      "type": "function"
    },
    {
      "inputs": [
        {
          "internalType": "address",
          "name": "owner",
          "type": "address"
        },
        {
          "internalType": "address",
          "name": "operator",
          "type": "address"
        }
      ],
      "name": "isApprovedForAll",
      "outputs": [
        {
          "internalType": "bool",
          "name": "",
          "type": "bool"
        }
      ],
      "stateMutability": "view",
      "type": "function"
    },
    {
      "inputs": [
        {
          "internalType": "address",
          "name": "to",
          "type": "address"
        },
        {
          "internalType": "string",
          "name": "uri",
          "type": "string"
        }
      ],
      "name": "mintToken",
      "outputs": [],
      "stateMutability": "payable",
      "type": "function"
    },
    {
      "inputs": [],
      "name": "name",
      "outputs": [
        {
          "internalType": "string",
          "name": "",
          "type": "string"
        }
      ],
      "stateMutability": "view",
      "type": "function"
    },
    {
      "inputs": [],
      "name": "owner",
      "outputs": [
        {
          "internalType": "address",
          "name": "",
          "type": "address"
        }
      ],
      "stateMutability": "view",
      "type": "function"
    },
    {
      "inputs": [
        {
          "internalType": "uint256",
          "name": "tokenId",
          "type": "uint256"
        }
      ],
      "name": "ownerOf",
      "outputs": [
        {
          "internalType": "address",
          "name": "",
          "type": "address"
        }
      ],
      "stateMutability": "view",
      "type": "function"
    },
    {
      "inputs": [],
      "name": "renounceOwnership",
      "outputs": [],
      "stateMutability": "nonpayable",
      "type": "function"
    },
    {
      "inputs": [
        {
          "internalType": "address",
          "name": "from",
          "type": "address"
        },
        {
          "internalType": "address",
          "name": "to",
          "type": "address"
        },
        {
          "internalType": "uint256",
          "name": "tokenId",
          "type": "uint256"
        }
      ],
      "name": "safeTransferFrom",
      "outputs": [],
      "stateMutability": "nonpayable",
      "type": "function"
    },
    {
      "inputs": [
        {
          "internalType": "address",
          "name": "from",
          "type": "address"
        },
        {
          "internalType": "address",
          "name": "to",
          "type": "address"
        },
        {
          "internalType": "uint256",
          "name": "tokenId",
          "type": "uint256"
        },
        {
          "internalType": "bytes",
          "name": "_data",
          "type": "bytes"
        }
      ],
      "name": "safeTransferFrom",
      "outputs": [],
      "stateMutability": "nonpayable",
      "type": "function"
    },
    {
      "inputs": [
        {
          "internalType": "address",
          "name": "operator",
          "type": "address"
        },
        {
          "internalType": "bool",
          "name": "approved",
          "type": "bool"
        }
      ],
      "name": "setApprovalForAll",
      "outputs": [],
      "stateMutability": "nonpayable",
      "type": "function"
    },
    {
      "inputs": [
        {
          "internalType": "bytes4",
          "name": "interfaceId",
          "type": "bytes4"
        }
      ],
      "name": "supportsInterface",
      "outputs": [
        {
          "internalType": "bool",
          "name": "",
          "type": "bool"
        }
      ],
      "stateMutability": "view",
      "type": "function"
    },
    {
      "inputs": [],
      "name": "symbol",
      "outputs": [
        {
          "internalType": "string",
          "name": "",
          "type": "string"
        }
      ],
      "stateMutability": "view",
      "type": "function"
    },
    {
      "inputs": [
        {
          "internalType": "uint256",
          "name": "tokenId",
          "type": "uint256"
        }
      ],
      "name": "tokenURI",
      "outputs": [
        {
          "internalType": "string",
          "name": "",
          "type": "string"
        }
      ],
      "stateMutability": "view",
      "type": "function"
    },
    {
      "inputs": [
        {
          "internalType": "address",
          "name": "from",
          "type": "address"
        },
        {
          "internalType": "address",
          "name": "to",
          "type": "address"
        },
        {
          "internalType": "uint256",
          "name": "tokenId",
          "type": "uint256"
        }
      ],
      "name": "transferFrom",
      "outputs": [],
      "stateMutability": "nonpayable",
      "type": "function"
    },
    {
      "inputs": [
        {
          "internalType": "address",
          "name": "newOwner",
          "type": "address"
        }
      ],
      "name": "transferOwnership",
      "outputs": [],
      "stateMutability": "nonpayable",
      "type": "function"
    }
  ],
  "bytecode": "0x60806040523480156200001157600080fd5b506040518060400160405280600a81526020017f47656e657379734e4654000000000000000000000000000000000000000000008152506040518060400160405280600381526020017f4e4654000000000000000000000000000000000000000000000000000000000081525081600090816200008f9190620003dd565b508060019081620000a19190620003dd565b5050506000620000b66200015b60201b60201c565b905080600660006101000a81548173ffffffffffffffffffffffffffffffffffffffff021916908373ffffffffffffffffffffffffffffffffffffffff1602179055508073ffffffffffffffffffffffffffffffffffffffff16600073ffffffffffffffffffffffffffffffffffffffff167f8be0079c531659141344cd1fd0a4f28419497f9722a3daafe3b4186f6b6457e060405160405180910390a350620004c4565b600033905090565b600081519050919050565b7f4e487b7100000000000000000000000000000000000000000000000000000000600052604160045260246000fd5b7f4e487b7100000000000000000000000000000000000000000000000000000000600052602260045260246000fd5b60006002820490506001821680620001e557607f821691505b602082108103620001fb57620001fa6200019d565b5b50919050565b60008190508160005260206000209050919050565b60006020601f8301049050919050565b600082821b905092915050565b600060088302620002657fffffffffffffffffffffffffffffffffffffffffffffffffffffffffffffffff8262000226565b62000271868362000226565b95508019841693508086168417925050509392505050565b6000819050919050565b6000819050919050565b6000620002be620002b8620002b28462000289565b62000293565b62000289565b9050919050565b6000819050919050565b620002da836200029d565b620002f2620002e982620002c5565b84845462000233565b825550505050565b600090565b62000309620002fa565b62000316818484620002cf565b505050565b5b818110156200033e5762000332600082620002ff565b6001810190506200031c565b5050565b601f8211156200038d57620003578162000201565b620003628462000216565b8101602085101562000372578190505b6200038a620003818562000216565b8301826200031b565b50505b505050565b600082821c905092915050565b6000620003b26000198460080262000392565b1980831691505092915050565b6000620003cd83836200039f565b9150826002028217905092915050565b620003e88262000163565b67ffffffffffffffff8111156200040457620004036200016e565b5b620004108254620001cc565b6200041d82828562000342565b600060209050601f83116001811462000455576000841562000440578287015190505b6200044c8582620003bf565b865550620004bc565b601f198416620004658662000201565b60005b828110156200048f5784890151825560018201915060208501945060208101905062000468565b86831015620004af5784890151620004ab601f8916826200039f565b8355505b6001600288020188555050505b505050505050565b612eaf80620004d46000396000f3fe6080604052600436106100fe5760003560e01c806370a0823111610095578063a22cb46511610064578063a22cb46514610326578063b88d4fde1461034f578063c87b56dd14610378578063e985e9c5146103b5578063f2fde38b146103f2576100fe565b806370a082311461027c578063715018a6146102b95780638da5cb5b146102d057806395d89b41146102fb576100fe565b806323b872dd116100d157806323b872dd146101d15780633d02d0c9146101fa57806342842e0e146102165780636352211e1461023f576100fe565b806301ffc9a71461010357806306fdde0314610140578063081812fc1461016b578063095ea7b3146101a8575b600080fd5b34801561010f57600080fd5b5061012a60048036038101906101259190611a2a565b61041b565b6040516101379190611a72565b60405180910390f35b34801561014c57600080fd5b506101556104fd565b6040516101629190611b1d565b60405180910390f35b34801561017757600080fd5b50610192600480360381019061018d9190611b75565b61058f565b60405161019f9190611be3565b60405180910390f35b3480156101b457600080fd5b506101cf60048036038101906101ca9190611c2a565b610614565b005b3480156101dd57600080fd5b506101f860048036038101906101f39190611c6a565b61072b565b005b610214600480360381019061020f9190611df2565b61078b565b005b34801561022257600080fd5b5061023d60048036038101906102389190611c6a565b610806565b005b34801561024b57600080fd5b5061026660048036038101906102619190611b75565b610826565b6040516102739190611be3565b60405180910390f35b34801561028857600080fd5b506102a3600480360381019061029e9190611e4e565b6108d7565b6040516102b09190611e8a565b60405180910390f35b3480156102c557600080fd5b506102ce61098e565b005b3480156102dc57600080fd5b506102e5610acb565b6040516102f29190611be3565b60405180910390f35b34801561030757600080fd5b50610310610af5565b60405161031d9190611b1d565b60405180910390f35b34801561033257600080fd5b5061034d60048036038101906103489190611ed1565b610b87565b005b34801561035b57600080fd5b5061037660048036038101906103719190611fb2565b610d07565b005b34801561038457600080fd5b5061039f600480360381019061039a9190611b75565b610d69565b6040516103ac9190611b1d565b60405180910390f35b3480156103c157600080fd5b506103dc60048036038101906103d79190612035565b610e56565b6040516103e99190611a72565b60405180910390f35b3480156103fe57600080fd5b5061041960048036038101906104149190611e4e565b610eea565b005b60007f80ac58cd000000000000000000000000000000000000000000000000000000007bffffffffffffffffffffffffffffffffffffffffffffffffffffffff1916827bffffffffffffffffffffffffffffffffffffffffffffffffffffffff191614806104e657507f5b5e139f000000000000000000000000000000000000000000000000000000007bffffffffffffffffffffffffffffffffffffffffffffffffffffffff1916827bffffffffffffffffffffffffffffffffffffffffffffffffffffffff1916145b806104f657506104f582611095565b5b9050919050565b60606000805461050c906120a4565b80601f0160208091040260200160405190810160405280929190818152602001828054610538906120a4565b80156105855780601f1061055a57610100808354040283529160200191610585565b820191906000526020600020905b81548152906001019060200180831161056857829003601f168201915b5050505050905090565b600061059a826110ff565b6105d9576040517f08c379a00000000000000000000000000000000000000000000000000000000081526004016105d090612147565b60405180910390fd5b6004600083815260200190815260200160002060009054906101000a900473ffffffffffffffffffffffffffffffffffffffff169050919050565b600061061f82610826565b90508073ffffffffffffffffffffffffffffffffffffffff168373ffffffffffffffffffffffffffffffffffffffff160361068f576040517f08c379a0000000000000000000000000000000000000000000000000000000008152600401610686906121d9565b60405180910390fd5b8073ffffffffffffffffffffffffffffffffffffffff166106ae61116b565b73ffffffffffffffffffffffffffffffffffffffff1614806106dd57506106dc816106d761116b565b610e56565b5b61071c576040517f08c379a00000000000000000000000000000000000000000000000000000000081526004016107139061226b565b60405180910390fd5b6107268383611173565b505050565b61073c61073661116b565b8261122c565b61077b576040517f08c379a0000000000000000000000000000000000000000000000000000000008152600401610772906122fd565b60405180910390fd5b61078683838361130a565b505050565b662386f26fc100003410156107d5576040517f08c379a00000000000000000000000000000000000000000000000000000000081526004016107cc9061238f565b60405180910390fd5b6107df6007611565565b60006107eb600761157b565b90506107f78382611589565b6108018183611756565b505050565b61082183838360405180602001604052806000815250610d07565b505050565b6000806002600084815260200190815260200160002060009054906101000a900473ffffffffffffffffffffffffffffffffffffffff169050600073ffffffffffffffffffffffffffffffffffffffff168173ffffffffffffffffffffffffffffffffffffffff16036108ce576040517f08c379a00000000000000000000000000000000000000000000000000000000081526004016108c590612421565b60405180910390fd5b80915050919050565b60008073ffffffffffffffffffffffffffffffffffffffff168273ffffffffffffffffffffffffffffffffffffffff1603610947576040517f08c379a000000000000000000000000000000000000000000000000000000000815260040161093e906124b3565b60405180910390fd5b600360008373ffffffffffffffffffffffffffffffffffffffff1673ffffffffffffffffffffffffffffffffffffffff168152602001908152602001600020549050919050565b61099661116b565b73ffffffffffffffffffffffffffffffffffffffff166109b4610acb565b73ffffffffffffffffffffffffffffffffffffffff1614610a0a576040517f08c379a0000000000000000000000000000000000000000000000000000000008152600401610a019061251f565b60405180910390fd5b600073ffffffffffffffffffffffffffffffffffffffff16600660009054906101000a900473ffffffffffffffffffffffffffffffffffffffff1673ffffffffffffffffffffffffffffffffffffffff167f8be0079c531659141344cd1fd0a4f28419497f9722a3daafe3b4186f6b6457e060405160405180910390a36000600660006101000a81548173ffffffffffffffffffffffffffffffffffffffff021916908373ffffffffffffffffffffffffffffffffffffffff160217905550565b6000600660009054906101000a900473ffffffffffffffffffffffffffffffffffffffff16905090565b606060018054610b04906120a4565b80601f0160208091040260200160405190810160405280929190818152602001828054610b30906120a4565b8015610b7d5780601f10610b5257610100808354040283529160200191610b7d565b820191906000526020600020905b815481529060010190602001808311610b6057829003601f168201915b5050505050905090565b610b8f61116b565b73ffffffffffffffffffffffffffffffffffffffff168273ffffffffffffffffffffffffffffffffffffffff1603610bfc576040517f08c379a0000000000000000000000000000000000000000000000000000000008152600401610bf39061258b565b60405180910390fd5b8060056000610c0961116b565b73ffffffffffffffffffffffffffffffffffffffff1673ffffffffffffffffffffffffffffffffffffffff16815260200190815260200160002060008473ffffffffffffffffffffffffffffffffffffffff1673ffffffffffffffffffffffffffffffffffffffff16815260200190815260200160002060006101000a81548160ff0219169083151502179055508173ffffffffffffffffffffffffffffffffffffffff16610cb661116b565b73ffffffffffffffffffffffffffffffffffffffff167f17307eab39ab6107e8899845ad3d59bd9653f200f220920489ca2b5937696c3183604051610cfb9190611a72565b60405180910390a35050565b610d18610d1261116b565b8361122c565b610d57576040517f08c379a0000000000000000000000000000000000000000000000000000000008152600401610d4e906122fd565b60405180910390fd5b610d63848484846117c3565b50505050565b6060610d74826110ff565b610db3576040517f08c379a0000000000000000000000000000000000000000000000000000000008152600401610daa9061261d565b60405180910390fd5b600860008381526020019081526020016000208054610dd1906120a4565b80601f0160208091040260200160405190810160405280929190818152602001828054610dfd906120a4565b8015610e4a5780601f10610e1f57610100808354040283529160200191610e4a565b820191906000526020600020905b815481529060010190602001808311610e2d57829003601f168201915b50505050509050919050565b6000600560008473ffffffffffffffffffffffffffffffffffffffff1673ffffffffffffffffffffffffffffffffffffffff16815260200190815260200160002060008373ffffffffffffffffffffffffffffffffffffffff1673ffffffffffffffffffffffffffffffffffffffff16815260200190815260200160002060009054906101000a900460ff16905092915050565b610ef261116b565b73ffffffffffffffffffffffffffffffffffffffff16610f10610acb565b73ffffffffffffffffffffffffffffffffffffffff1614610f66576040517f08c379a0000000000000000000000000000000000000000000000000000000008152600401610f5d9061251f565b60405180910390fd5b600073ffffffffffffffffffffffffffffffffffffffff168173ffffffffffffffffffffffffffffffffffffffff1603610fd5576040517f08c379a0000000000000000000000000000000000000000000000000000000008152600401610fcc906126af565b60405180910390fd5b8073ffffffffffffffffffffffffffffffffffffffff16600660009054906101000a900473ffffffffffffffffffffffffffffffffffffffff1673ffffffffffffffffffffffffffffffffffffffff167f8be0079c531659141344cd1fd0a4f28419497f9722a3daafe3b4186f6b6457e060405160405180910390a380600660006101000a81548173ffffffffffffffffffffffffffffffffffffffff021916908373ffffffffffffffffffffffffffffffffffffffff16021790555050565b60007f01ffc9a7000000000000000000000000000000000000000000000000000000007bffffffffffffffffffffffffffffffffffffffffffffffffffffffff1916827bffffffffffffffffffffffffffffffffffffffffffffffffffffffff1916149050919050565b60008073ffffffffffffffffffffffffffffffffffffffff166002600084815260200190815260200160002060009054906101000a900473ffffffffffffffffffffffffffffffffffffffff1673ffffffffffffffffffffffffffffffffffffffff1614159050919050565b600033905090565b816004600083815260200190815260200160002060006101000a81548173ffffffffffffffffffffffffffffffffffffffff021916908373ffffffffffffffffffffffffffffffffffffffff160217905550808273ffffffffffffffffffffffffffffffffffffffff166111e683610826565b73ffffffffffffffffffffffffffffffffffffffff167f8c5be1e5ebec7d5bd14f71427d1e84f3dd0314c0f7b2291e5b200ac8c7c3b92560405160405180910390a45050565b6000611237826110ff565b611276576040517f08c379a000000000000000000000000000000000000000000000000000000000815260040161126d90612741565b60405180910390fd5b600061128183610826565b90508073ffffffffffffffffffffffffffffffffffffffff168473ffffffffffffffffffffffffffffffffffffffff1614806112f057508373ffffffffffffffffffffffffffffffffffffffff166112d88461058f565b73ffffffffffffffffffffffffffffffffffffffff16145b8061130157506113008185610e56565b5b91505092915050565b8273ffffffffffffffffffffffffffffffffffffffff1661132a82610826565b73ffffffffffffffffffffffffffffffffffffffff1614611380576040517f08c379a0000000000000000000000000000000000000000000000000000000008152600401611377906127d3565b60405180910390fd5b600073ffffffffffffffffffffffffffffffffffffffff168273ffffffffffffffffffffffffffffffffffffffff16036113ef576040517f08c379a00000000000000000000000000000000000000000000000000000000081526004016113e690612865565b60405180910390fd5b6113fa83838361181f565b611405600082611173565b6001600360008573ffffffffffffffffffffffffffffffffffffffff1673ffffffffffffffffffffffffffffffffffffffff168152602001908152602001600020600082825461145591906128b4565b925050819055506001600360008473ffffffffffffffffffffffffffffffffffffffff1673ffffffffffffffffffffffffffffffffffffffff16815260200190815260200160002060008282546114ac91906128e8565b92505081905550816002600083815260200190815260200160002060006101000a81548173ffffffffffffffffffffffffffffffffffffffff021916908373ffffffffffffffffffffffffffffffffffffffff160217905550808273ffffffffffffffffffffffffffffffffffffffff168473ffffffffffffffffffffffffffffffffffffffff167fddf252ad1be2c89b69c2b068fc378daa952ba7f163c4a11628f55a4df523b3ef60405160405180910390a4505050565b6001816000016000828254019250508190555050565b600081600001549050919050565b600073ffffffffffffffffffffffffffffffffffffffff168273ffffffffffffffffffffffffffffffffffffffff16036115f8576040517f08c379a00000000000000000000000000000000000000000000000000000000081526004016115ef90612968565b60405180910390fd5b611601816110ff565b15611641576040517f08c379a0000000000000000000000000000000000000000000000000000000008152600401611638906129d4565b60405180910390fd5b61164d6000838361181f565b6001600360008473ffffffffffffffffffffffffffffffffffffffff1673ffffffffffffffffffffffffffffffffffffffff168152602001908152602001600020600082825461169d91906128e8565b92505081905550816002600083815260200190815260200160002060006101000a81548173ffffffffffffffffffffffffffffffffffffffff021916908373ffffffffffffffffffffffffffffffffffffffff160217905550808273ffffffffffffffffffffffffffffffffffffffff16600073ffffffffffffffffffffffffffffffffffffffff167fddf252ad1be2c89b69c2b068fc378daa952ba7f163c4a11628f55a4df523b3ef60405160405180910390a45050565b61175f826110ff565b61179e576040517f08c379a000000000000000000000000000000000000000000000000000000000815260040161179590612a66565b60405180910390fd5b806008600084815260200190815260200160002090816117be9190612c32565b505050565b6117ce84848461130a565b6117da84848484611824565b611819576040517f08c379a000000000000000000000000000000000000000000000000000000000815260040161181090612d76565b60405180910390fd5b50505050565b505050565b60006118458473ffffffffffffffffffffffffffffffffffffffff166119ab565b1561199e578373ffffffffffffffffffffffffffffffffffffffff1663150b7a0261186e61116b565b8786866040518563ffffffff1660e01b81526004016118909493929190612deb565b6020604051808303816000875af19250505080156118cc57506040513d601f19601f820116820180604052508101906118c99190612e4c565b60015b61194e573d80600081146118fc576040519150601f19603f3d011682016040523d82523d6000602084013e611901565b606091505b506000815103611946576040517f08c379a000000000000000000000000000000000000000000000000000000000815260040161193d90612d76565b60405180910390fd5b805181602001fd5b63150b7a0260e01b7bffffffffffffffffffffffffffffffffffffffffffffffffffffffff1916817bffffffffffffffffffffffffffffffffffffffffffffffffffffffff1916149150506119a3565b600190505b949350505050565b600080823b905060008111915050919050565b6000604051905090565b600080fd5b600080fd5b60007fffffffff0000000000000000000000000000000000000000000000000000000082169050919050565b611a07816119d2565b8114611a1257600080fd5b50565b600081359050611a24816119fe565b92915050565b600060208284031215611a4057611a3f6119c8565b5b6000611a4e84828501611a15565b91505092915050565b60008115159050919050565b611a6c81611a57565b82525050565b6000602082019050611a876000830184611a63565b92915050565b600081519050919050565b600082825260208201905092915050565b60005b83811015611ac7578082015181840152602081019050611aac565b60008484015250505050565b6000601f19601f8301169050919050565b6000611aef82611a8d565b611af98185611a98565b9350611b09818560208601611aa9565b611b1281611ad3565b840191505092915050565b60006020820190508181036000830152611b378184611ae4565b905092915050565b6000819050919050565b611b5281611b3f565b8114611b5d57600080fd5b50565b600081359050611b6f81611b49565b92915050565b600060208284031215611b8b57611b8a6119c8565b5b6000611b9984828501611b60565b91505092915050565b600073ffffffffffffffffffffffffffffffffffffffff82169050919050565b6000611bcd82611ba2565b9050919050565b611bdd81611bc2565b82525050565b6000602082019050611bf86000830184611bd4565b92915050565b611c0781611bc2565b8114611c1257600080fd5b50565b600081359050611c2481611bfe565b92915050565b60008060408385031215611c4157611c406119c8565b5b6000611c4f85828601611c15565b9250506020611c6085828601611b60565b9150509250929050565b600080600060608486031215611c8357611c826119c8565b5b6000611c9186828701611c15565b9350506020611ca286828701611c15565b9250506040611cb386828701611b60565b9150509250925092565b600080fd5b600080fd5b7f4e487b7100000000000000000000000000000000000000000000000000000000600052604160045260246000fd5b611cff82611ad3565b810181811067ffffffffffffffff82111715611d1e57611d1d611cc7565b5b80604052505050565b6000611d316119be565b9050611d3d8282611cf6565b919050565b600067ffffffffffffffff821115611d5d57611d5c611cc7565b5b611d6682611ad3565b9050602081019050919050565b82818337600083830152505050565b6000611d95611d9084611d42565b611d27565b905082815260208101848484011115611db157611db0611cc2565b5b611dbc848285611d73565b509392505050565b600082601f830112611dd957611dd8611cbd565b5b8135611de9848260208601611d82565b91505092915050565b60008060408385031215611e0957611e086119c8565b5b6000611e1785828601611c15565b925050602083013567ffffffffffffffff811115611e3857611e376119cd565b5b611e4485828601611dc4565b9150509250929050565b600060208284031215611e6457611e636119c8565b5b6000611e7284828501611c15565b91505092915050565b611e8481611b3f565b82525050565b6000602082019050611e9f6000830184611e7b565b92915050565b611eae81611a57565b8114611eb957600080fd5b50565b600081359050611ecb81611ea5565b92915050565b60008060408385031215611ee857611ee76119c8565b5b6000611ef685828601611c15565b9250506020611f0785828601611ebc565b9150509250929050565b600067ffffffffffffffff821115611f2c57611f2b611cc7565b5b611f3582611ad3565b9050602081019050919050565b6000611f55611f5084611f11565b611d27565b905082815260208101848484011115611f7157611f70611cc2565b5b611f7c848285611d73565b509392505050565b600082601f830112611f9957611f98611cbd565b5b8135611fa9848260208601611f42565b91505092915050565b60008060008060808587031215611fcc57611fcb6119c8565b5b6000611fda87828801611c15565b9450506020611feb87828801611c15565b9350506040611ffc87828801611b60565b925050606085013567ffffffffffffffff81111561201d5761201c6119cd565b5b61202987828801611f84565b91505092959194509250565b6000806040838503121561204c5761204b6119c8565b5b600061205a85828601611c15565b925050602061206b85828601611c15565b9150509250929050565b7f4e487b7100000000000000000000000000000000000000000000000000000000600052602260045260246000fd5b600060028204905060018216806120bc57607f821691505b6020821081036120cf576120ce612075565b5b50919050565b7f4552433732313a20617070726f76656420717565727920666f72206e6f6e657860008201527f697374656e7420746f6b656e0000000000000000000000000000000000000000602082015250565b6000612131602c83611a98565b915061213c826120d5565b604082019050919050565b6000602082019050818103600083015261216081612124565b9050919050565b7f4552433732313a20617070726f76616c20746f2063757272656e74206f776e6560008201527f7200000000000000000000000000000000000000000000000000000000000000602082015250565b60006121c3602183611a98565b91506121ce82612167565b604082019050919050565b600060208201905081810360008301526121f2816121b6565b9050919050565b7f4552433732313a20617070726f76652063616c6c6572206973206e6f74206f7760008201527f6e6572206e6f7220617070726f76656420666f7220616c6c0000000000000000602082015250565b6000612255603883611a98565b9150612260826121f9565b604082019050919050565b6000602082019050818103600083015261228481612248565b9050919050565b7f4552433732313a207472616e736665722063616c6c6572206973206e6f74206f60008201527f776e6572206e6f7220617070726f766564000000000000000000000000000000602082015250565b60006122e7603183611a98565b91506122f28261228b565b604082019050919050565b60006020820190508181036000830152612316816122da565b9050919050565b7f4e6f7420656e6f756768204554482073656e743b20636865636b20707269636560008201527f2100000000000000000000000000000000000000000000000000000000000000602082015250565b6000612379602183611a98565b91506123848261231d565b604082019050919050565b600060208201905081810360008301526123a88161236c565b9050919050565b7f4552433732313a206f776e657220717565727920666f72206e6f6e657869737460008201527f656e7420746f6b656e0000000000000000000000000000000000000000000000602082015250565b600061240b602983611a98565b9150612416826123af565b604082019050919050565b6000602082019050818103600083015261243a816123fe565b9050919050565b7f4552433732313a2062616c616e636520717565727920666f7220746865207a6560008201527f726f206164647265737300000000000000000000000000000000000000000000602082015250565b600061249d602a83611a98565b91506124a882612441565b604082019050919050565b600060208201905081810360008301526124cc81612490565b9050919050565b7f4f776e61626c653a2063616c6c6572206973206e6f7420746865206f776e6572600082015250565b6000612509602083611a98565b9150612514826124d3565b602082019050919050565b60006020820190508181036000830152612538816124fc565b9050919050565b7f4552433732313a20617070726f766520746f2063616c6c657200000000000000600082015250565b6000612575601983611a98565b91506125808261253f565b602082019050919050565b600060208201905081810360008301526125a481612568565b9050919050565b7f4552433732314d657461646174613a2055524920717565727920666f72206e6f60008201527f6e6578697374656e7420746f6b656e0000000000000000000000000000000000602082015250565b6000612607602f83611a98565b9150612612826125ab565b604082019050919050565b60006020820190508181036000830152612636816125fa565b9050919050565b7f4f776e61626c653a206e6577206f776e657220697320746865207a65726f206160008201527f6464726573730000000000000000000000000000000000000000000000000000602082015250565b6000612699602683611a98565b91506126a48261263d565b604082019050919050565b600060208201905081810360008301526126c88161268c565b9050919050565b7f4552433732313a206f70657261746f7220717565727920666f72206e6f6e657860008201527f697374656e7420746f6b656e0000000000000000000000000000000000000000602082015250565b600061272b602c83611a98565b9150612736826126cf565b604082019050919050565b6000602082019050818103600083015261275a8161271e565b9050919050565b7f4552433732313a207472616e73666572206f6620746f6b656e2074686174206960008201527f73206e6f74206f776e0000000000000000000000000000000000000000000000602082015250565b60006127bd602983611a98565b91506127c882612761565b604082019050919050565b600060208201905081810360008301526127ec816127b0565b9050919050565b7f4552433732313a207472616e7366657220746f20746865207a65726f2061646460008201527f7265737300000000000000000000000000000000000000000000000000000000602082015250565b600061284f602483611a98565b915061285a826127f3565b604082019050919050565b6000602082019050818103600083015261287e81612842565b9050919050565b7f4e487b7100000000000000000000000000000000000000000000000000000000600052601160045260246000fd5b60006128bf82611b3f565b91506128ca83611b3f565b92508282039050818111156128e2576128e1612885565b5b92915050565b60006128f382611b3f565b91506128fe83611b3f565b925082820190508082111561291657612915612885565b5b92915050565b7f4552433732313a206d696e7420746f20746865207a65726f2061646472657373600082015250565b6000612952602083611a98565b915061295d8261291c565b602082019050919050565b6000602082019050818103600083015261298181612945565b9050919050565b7f4552433732313a20746f6b656e20616c7265616479206d696e74656400000000600082015250565b60006129be601c83611a98565b91506129c982612988565b602082019050919050565b600060208201905081810360008301526129ed816129b1565b9050919050565b7f4552433732314d657461646174613a2055524920736574206f66206e6f6e657860008201527f697374656e7420746f6b656e0000000000000000000000000000000000000000602082015250565b6000612a50602c83611a98565b9150612a5b826129f4565b604082019050919050565b60006020820190508181036000830152612a7f81612a43565b9050919050565b60008190508160005260206000209050919050565b60006020601f8301049050919050565b600082821b905092915050565b600060088302612ae87fffffffffffffffffffffffffffffffffffffffffffffffffffffffffffffffff82612aab565b612af28683612aab565b95508019841693508086168417925050509392505050565b6000819050919050565b6000612b2f612b2a612b2584611b3f565b612b0a565b611b3f565b9050919050565b6000819050919050565b612b4983612b14565b612b5d612b5582612b36565b848454612ab8565b825550505050565b600090565b612b72612b65565b612b7d818484612b40565b505050565b5b81811015612ba157612b96600082612b6a565b600181019050612b83565b5050565b601f821115612be657612bb781612a86565b612bc084612a9b565b81016020851015612bcf578190505b612be3612bdb85612a9b565b830182612b82565b50505b505050565b600082821c905092915050565b6000612c0960001984600802612beb565b1980831691505092915050565b6000612c228383612bf8565b9150826002028217905092915050565b612c3b82611a8d565b67ffffffffffffffff811115612c5457612c53611cc7565b5b612c5e82546120a4565b612c69828285612ba5565b600060209050601f831160018114612c9c5760008415612c8a578287015190505b612c948582612c16565b865550612cfc565b601f198416612caa86612a86565b60005b82811015612cd257848901518255600182019150602085019450602081019050612cad565b86831015612cef5784890151612ceb601f891682612bf8565b8355505b6001600288020188555050505b505050505050565b7f4552433732313a207472616e7366657220746f206e6f6e20455243373231526560008201527f63656976657220696d706c656d656e7465720000000000000000000000000000602082015250565b6000612d60603283611a98565b9150612d6b82612d04565b604082019050919050565b60006020820190508181036000830152612d8f81612d53565b9050919050565b600081519050919050565b600082825260208201905092915050565b6000612dbd82612d96565b612dc78185612da1565b9350612dd7818560208601611aa9565b612de081611ad3565b840191505092915050565b6000608082019050612e006000830187611bd4565b612e0d6020830186611bd4565b612e1a6040830185611e7b565b8181036060830152612e2c8184612db2565b905095945050505050565b600081519050612e46816119fe565b92915050565b600060208284031215612e6257612e616119c8565b5b6000612e7084828501612e37565b9150509291505056fea26469706673582212200e1e9092def45e2881402ee579a256f530e026daa8891b1e323478361d56bc5b64736f6c63430008120033",
  "linkReferences": {},
  "deployedLinkReferences": {}
}